{
  "address": "0x84FFe69B0c7ae7B8BE10891a6553D459aBf4Da9B",
  "abi": [
    {
      "inputs": [],
      "stateMutability": "nonpayable",
      "type": "constructor"
    },
    {
      "anonymous": false,
      "inputs": [
        {
          "indexed": false,
          "internalType": "address",
          "name": "sender",
          "type": "address"
        },
        {
          "indexed": false,
          "internalType": "uint256",
          "name": "amount",
          "type": "uint256"
        }
      ],
      "name": "Received",
      "type": "event"
    },
    {
      "stateMutability": "payable",
      "type": "fallback"
    },
    {
      "inputs": [
        {
          "internalType": "address",
          "name": "",
          "type": "address"
        }
      ],
      "name": "_childSavings",
      "outputs": [
        {
          "internalType": "uint256",
          "name": "childAge",
          "type": "uint256"
        },
        {
          "internalType": "uint256",
          "name": "amount",
          "type": "uint256"
        },
        {
          "internalType": "uint256",
          "name": "targetChild",
          "type": "uint256"
        },
        {
          "internalType": "address payable",
          "name": "childAddress",
          "type": "address"
        },
        {
          "internalType": "address",
          "name": "fatherAddress",
          "type": "address"
        },
        {
          "internalType": "uint256",
          "name": "canWithdraw",
          "type": "uint256"
        },
        {
          "internalType": "bool",
          "name": "deposited",
          "type": "bool"
        }
      ],
      "stateMutability": "view",
      "type": "function"
    },
    {
      "inputs": [
        {
          "internalType": "uint256",
          "name": "",
          "type": "uint256"
        }
      ],
      "name": "_savings",
      "outputs": [
        {
          "internalType": "address payable",
          "name": "owner",
          "type": "address"
        },
        {
          "internalType": "uint256",
          "name": "savingsAmount",
          "type": "uint256"
        },
        {
          "internalType": "uint256",
          "name": "target",
          "type": "uint256"
        },
        {
          "internalType": "uint256",
          "name": "startDate",
          "type": "uint256"
        },
        {
          "internalType": "uint256",
          "name": "endDate",
          "type": "uint256"
        },
        {
          "internalType": "string",
          "name": "purpose",
          "type": "string"
        },
        {
          "internalType": "bool",
          "name": "isTime",
          "type": "bool"
        },
        {
          "internalType": "bool",
          "name": "forceWithdraw",
          "type": "bool"
        },
        {
          "internalType": "bool",
          "name": "inSaving",
          "type": "bool"
        },
        {
          "internalType": "enum Esusu.SavingsStatus",
          "name": "savingStatus",
          "type": "uint8"
        },
        {
          "internalType": "uint256",
          "name": "nonce",
          "type": "uint256"
        }
      ],
      "stateMutability": "view",
      "type": "function"
    },
    {
      "inputs": [
        {
          "internalType": "uint256",
          "name": "",
          "type": "uint256"
        },
        {
          "internalType": "address",
          "name": "",
          "type": "address"
        }
      ],
      "name": "_txHistory",
      "outputs": [
        {
          "internalType": "uint256",
          "name": "savingsNonce",
          "type": "uint256"
        },
        {
          "internalType": "string",
          "name": "purpose",
          "type": "string"
        },
        {
          "internalType": "uint256",
          "name": "amount",
          "type": "uint256"
        },
        {
          "internalType": "address payable",
          "name": "owner",
          "type": "address"
        },
        {
          "internalType": "uint256",
          "name": "totalDeposit",
          "type": "uint256"
        },
        {
          "internalType": "uint256",
          "name": "time",
          "type": "uint256"
        }
      ],
      "stateMutability": "view",
      "type": "function"
    },
    {
      "inputs": [],
      "name": "childAddress",
      "outputs": [
        {
          "internalType": "address payable",
          "name": "",
          "type": "address"
        }
      ],
      "stateMutability": "view",
      "type": "function"
    },
    {
      "inputs": [],
      "name": "currentTimeStap",
      "outputs": [
        {
          "internalType": "uint256",
          "name": "",
          "type": "uint256"
        }
      ],
      "stateMutability": "view",
      "type": "function"
    },
    {
      "inputs": [
        {
          "internalType": "uint256",
          "name": "_target",
          "type": "uint256"
        },
        {
          "internalType": "address",
          "name": "_father",
          "type": "address"
        }
      ],
      "name": "depositChildSavingsReg",
      "outputs": [],
      "stateMutability": "payable",
      "type": "function"
    },
    {
      "inputs": [
        {
          "internalType": "address",
          "name": "_childAddress",
          "type": "address"
        }
      ],
      "name": "depositForChild",
      "outputs": [],
      "stateMutability": "payable",
      "type": "function"
    },
    {
      "inputs": [
        {
          "internalType": "uint256",
          "name": "_savinsLen",
          "type": "uint256"
        }
      ],
      "name": "depositSave",
      "outputs": [],
      "stateMutability": "payable",
      "type": "function"
    },
    {
      "inputs": [],
      "name": "forceWithdraw",
      "outputs": [],
      "stateMutability": "nonpayable",
      "type": "function"
    },
    {
      "inputs": [
        {
          "internalType": "uint256",
          "name": "_target",
          "type": "uint256"
        },
        {
          "internalType": "string",
          "name": "_purpose",
          "type": "string"
        },
        {
          "internalType": "uint256",
          "name": "_targetAmount",
          "type": "uint256"
        }
      ],
      "name": "initialSaving",
      "outputs": [],
      "stateMutability": "nonpayable",
      "type": "function"
    },
    {
      "inputs": [],
      "name": "number_of_deposits",
      "outputs": [
        {
          "internalType": "uint256",
          "name": "",
          "type": "uint256"
        }
      ],
      "stateMutability": "view",
      "type": "function"
    },
    {
      "inputs": [
        {
          "internalType": "address",
          "name": "_childAddress",
          "type": "address"
        }
      ],
      "name": "saveMoreForChild",
      "outputs": [],
      "stateMutability": "payable",
      "type": "function"
    },
    {
      "inputs": [],
      "name": "savinsLen",
      "outputs": [
        {
          "internalType": "uint256",
          "name": "",
          "type": "uint256"
        }
      ],
      "stateMutability": "view",
      "type": "function"
    },
    {
      "inputs": [
        {
          "internalType": "uint256",
          "name": "_savinsLen",
          "type": "uint256"
        }
      ],
      "name": "targetReach",
      "outputs": [],
      "stateMutability": "nonpayable",
      "type": "function"
    },
    {
      "inputs": [],
      "name": "txHistoryLen",
      "outputs": [
        {
          "internalType": "uint256",
          "name": "",
          "type": "uint256"
        }
      ],
      "stateMutability": "view",
      "type": "function"
    },
    {
      "inputs": [
        {
          "internalType": "address",
          "name": "_child",
          "type": "address"
        }
      ],
      "name": "withdraw",
      "outputs": [],
      "stateMutability": "nonpayable",
      "type": "function"
    },
    {
      "stateMutability": "payable",
      "type": "receive"
    }
  ],
  "transactionHash": "0xb320aa1f1bee9b9888dcc8c0ce92468575f8c204da1da2a71dd2bd40f4723955",
  "args": [],
  "numDeployments": 6,
  "solcInputHash": "a8c7c9fe5031684d2ba909fb4347742f",
  "bytecode": "0x6080604052426004819055610018906321d59f0061002d565b60055534801561002757600080fd5b50610054565b8082018082111561004e57634e487b7160e01b600052601160045260246000fd5b92915050565b61111d806100636000396000f3fe6080604052600436106100eb5760003560e01c8063a84823c711610084578063c265418111610056578063c26541811461034f578063ce640ba714610365578063dd89237014610378578063dea605751461039857005b8063a84823c7146102d8578063b13a186e146102ee578063b8a947de14610304578063bfe144221461033c57005b806351cff8d9116100bd57806351cff8d914610262578063567fd10c1461028257806376324467146102b95780637be80b39146102cc57005b80630139c022146100f45780630b8ca1d1146101a25780631ccfeec91461020c5780631fb89f691461023057005b366100f257005b005b34801561010057600080fd5b5061015d61010f366004610bbf565b600660208190526000918252604090912080546001820154600283015460038401546004850154600586015495909601549395929491936001600160a01b0391821693909116919060ff1687565b604080519788526020880196909652948601939093526001600160a01b03918216606086015216608084015260a0830152151560c082015260e0015b60405180910390f35b6100f26101b0366004610be1565b336000818152600660208190526040909120600281018590559384556003840180546001600160a01b031990811690931790556004840180549092166001600160a01b039390931692909217905501805460ff19166001179055565b34801561021857600080fd5b5061022260015481565b604051908152602001610199565b34801561023c57600080fd5b5061025061024b366004610be1565b6103b8565b60405161019996959493929190610c53565b34801561026e57600080fd5b506100f261027d366004610bbf565b61048b565b34801561028e57600080fd5b506102a261029d366004610c9a565b610644565b6040516101999b9a99989796959493929190610cb3565b6100f26102c7366004610bbf565b61073b565b3480156100f257600080fd5b3480156102e457600080fd5b5061022260045481565b3480156102fa57600080fd5b5061022260005481565b34801561031057600080fd5b50600354610324906001600160a01b031681565b6040516001600160a01b039091168152602001610199565b6100f261034a366004610bbf565b61079a565b34801561035b57600080fd5b5061022260025481565b6100f2610373366004610c9a565b6107ec565b34801561038457600080fd5b506100f2610393366004610d58565b610944565b3480156103a457600080fd5b506100f26103b3366004610c9a565b6109ec565b6007602090815260009283526040808420909152908252902080546001820180549192916103e590610e1c565b80601f016020809104026020016040519081016040528092919081815260200182805461041190610e1c565b801561045e5780601f106104335761010080835404028352916020019161045e565b820191906000526020600020905b81548152906001019060200180831161044157829003601f168201915b50505050600283015460038401546004850154600590950154939491936001600160a01b03909116925086565b336000818152600660205260409020600301546001600160a01b0316146105125760405162461bcd60e51b815260206004820152603060248201527f63616e742077697468647261772066756e64206265636175736520697473206e60448201526f6f74206368696c64206164647265737360801b60648201526084015b60405180910390fd5b33600090815260066020526040902060018101546002820154101561056a5760405162461bcd60e51b815260206004820152600e60248201526d139bdd081e595d081d185c99d95d60921b6044820152606401610509565b6001600160a01b0382811660009081526006602052604080822060010154600385015491519093919091169083908381818185875af1925050503d80600081146105d0576040519150601f19603f3d011682016040523d82523d6000602084013e6105d5565b606091505b505090508061061d5760405162461bcd60e51b81526020600482015260146024820152732330b4b632b2103a379039b2b7321022ba3432b960611b6044820152606401610509565b5050506001600160a01b031660009081526006602052604081206001810182905560020155565b6008602052600090815260409020805460018201546002830154600384015460048501546005860180546001600160a01b039096169694959394929391929161068c90610e1c565b80601f01602080910402602001604051908101604052809291908181526020018280546106b890610e1c565b80156107055780601f106106da57610100808354040283529160200191610705565b820191906000526020600020905b8154815290600101906020018083116106e857829003601f168201915b5050506006840154600790940154929360ff8082169461010083048216945062010000830482169350630100000090920416908b565b6001600160a01b0381166000908152600660205260409020346107705760405162461bcd60e51b815260040161050990610e56565b348160010160008282546107849190610eb4565b9091555050600601805460ff1916600117905550565b6001600160a01b0381166000908152600660205260409020346107cf5760405162461bcd60e51b815260040161050990610e56565b348160010160008282546107e39190610eb4565b90915550505050565b6000818152600860205260409020546001600160a01b031633146108525760405162461bcd60e51b815260206004820152601960248201527f596f752063616e277420696e697469616c206465706f736974000000000000006044820152606401610509565b600081815260086020908152604080832060015484526007835281842081546001600160a01b031685529092529091203461089f5760405162461bcd60e51b815260040161050990610e56565b348260010160008282546108b39190610eb4565b92505081905550348160020160008282546108ce9190610eb4565b909155505060068201805463ff0000001916630100000017905582815581546003820180546001600160a01b0319166001600160a01b0390921691909117905542600580830191909155600182019061092990840182610f1c565b506001805490600061093a83610ffd565b9190505550505050565b6002805460009160089183918261095a83610ffd565b9190505581526020019081526020016000209050600084601861097d9190611016565b61098890603c611016565b61099390603c611016565b82546001600160a01b0319163317835542600384018190559091506109b9908290610eb4565b6004830155600582016109cc858261102d565b505060068101805463ffffffff1916905560028054600783015501555050565b6000818152600860205260409020546001600160a01b03163314610a615760405162461bcd60e51b815260206004820152602660248201527f596f7520646f6e742068617665206163636f756e7420696e697469616c20776960448201526574686472617760d01b6064820152608401610509565b6000818152600860205260409020600181015460028201541015610ade5760405162461bcd60e51b815260206004820152602e60248201527f54686520746172676574206d757374207265616368206265666f726520796f7560448201526d01031b0b7103bb4ba34323930bb960951b6064820152608401610509565b600281015481546040516000916001600160a01b03169083908381818185875af1925050503d8060008114610b2f576040519150601f19603f3d011682016040523d82523d6000602084013e610b34565b606091505b5050905080610b7c5760405162461bcd60e51b81526020600482015260146024820152732330b4b632b2103a379039b2b7321022ba3432b960611b6044820152606401610509565b50506000600282018190556001820155600601805463ff0000001916630200000017905550565b80356001600160a01b0381168114610bba57600080fd5b919050565b600060208284031215610bd157600080fd5b610bda82610ba3565b9392505050565b60008060408385031215610bf457600080fd5b82359150610c0460208401610ba3565b90509250929050565b6000815180845260005b81811015610c3357602081850181015186830182015201610c17565b506000602082860101526020601f19601f83011685010191505092915050565b86815260c060208201526000610c6c60c0830188610c0d565b6040830196909652506001600160a01b03939093166060840152608083019190915260a09091015292915050565b600060208284031215610cac57600080fd5b5035919050565b600061016060018060a01b038e1683528c60208401528b60408401528a60608401528960808401528060a0840152610ced8184018a610c0d565b91505086151560c083015285151560e083015284151561010083015260038410610d2757634e487b7160e01b600052602160045260246000fd5b61012082019390935261014001529998505050505050505050565b634e487b7160e01b600052604160045260246000fd5b600080600060608486031215610d6d57600080fd5b83359250602084013567ffffffffffffffff80821115610d8c57600080fd5b818601915086601f830112610da057600080fd5b813581811115610db257610db2610d42565b604051601f8201601f19908116603f01168101908382118183101715610dda57610dda610d42565b81604052828152896020848701011115610df357600080fd5b826020860160208301376000602084830101528096505050505050604084013590509250925092565b600181811c90821680610e3057607f821691505b602082108103610e5057634e487b7160e01b600052602260045260246000fd5b50919050565b60208082526028908201527f4465706f73697420616d6f756e74206d7573742062652067726561746572207460408201526768616e207a65726f60c01b606082015260800190565b634e487b7160e01b600052601160045260246000fd5b80820180821115610ec757610ec7610e9e565b92915050565b601f821115610f1757600081815260208120601f850160051c81016020861015610ef45750805b601f850160051c820191505b81811015610f1357828155600101610f00565b5050505b505050565b818103610f27575050565b610f318254610e1c565b67ffffffffffffffff811115610f4957610f49610d42565b610f5d81610f578454610e1c565b84610ecd565b6000601f821160018114610f915760008315610f795750848201545b600019600385901b1c1916600184901b178455610ff6565b600085815260209020601f19841690600086815260209020845b83811015610fcb5782860154825560019586019590910190602001610fab565b5085831015610fe95781850154600019600388901b60f8161c191681555b50505060018360011b0184555b5050505050565b60006001820161100f5761100f610e9e565b5060010190565b8082028115828204841417610ec757610ec7610e9e565b815167ffffffffffffffff81111561104757611047610d42565b61105581610f578454610e1c565b602080601f83116001811461108a57600084156110725750858301515b600019600386901b1c1916600185901b178555610f13565b600085815260208120601f198616915b828110156110b95788860151825594840194600190910190840161109a565b50858210156110d75787850151600019600388901b60f8161c191681555b5050505050600190811b0190555056fea2646970667358221220de693e6a52c4438f74d96fd1fef5498ea1f0a459a55432bd7fde22ab48f058a164736f6c63430008110033",
  "devdoc": {
    "kind": "dev",
    "methods": {},
    "version": 1
  },
  "userdoc": {
    "kind": "user",
    "methods": {},
    "version": 1
  },
  "storageLayout": {
    "storage": [
      {
        "astId": 70,
        "contract": "contracts/Esusu.sol:Esusu",
        "label": "number_of_deposits",
        "offset": 0,
        "slot": "0",
        "type": "t_uint256"
      },
      {
        "astId": 72,
        "contract": "contracts/Esusu.sol:Esusu",
        "label": "txHistoryLen",
        "offset": 0,
        "slot": "1",
        "type": "t_uint256"
      },
      {
        "astId": 74,
        "contract": "contracts/Esusu.sol:Esusu",
        "label": "savinsLen",
        "offset": 0,
        "slot": "2",
        "type": "t_uint256"
      },
      {
        "astId": 76,
        "contract": "contracts/Esusu.sol:Esusu",
        "label": "childAddress",
        "offset": 0,
        "slot": "3",
        "type": "t_address_payable"
      },
      {
        "astId": 80,
        "contract": "contracts/Esusu.sol:Esusu",
        "label": "currentTimeStap",
        "offset": 0,
        "slot": "4",
        "type": "t_uint256"
      },
      {
        "astId": 93,
        "contract": "contracts/Esusu.sol:Esusu",
        "label": "toGetPay",
        "offset": 0,
        "slot": "5",
        "type": "t_uint256"
      },
      {
        "astId": 146,
        "contract": "contracts/Esusu.sol:Esusu",
        "label": "_childSavings",
        "offset": 0,
        "slot": "6",
        "type": "t_mapping(t_address,t_struct(ChildSavings)114_storage)"
      },
      {
        "astId": 153,
        "contract": "contracts/Esusu.sol:Esusu",
        "label": "_txHistory",
        "offset": 0,
        "slot": "7",
        "type": "t_mapping(t_uint256,t_mapping(t_address,t_struct(TxHistory)127_storage))"
      },
      {
        "astId": 376,
        "contract": "contracts/Esusu.sol:Esusu",
        "label": "_savings",
        "offset": 0,
        "slot": "8",
        "type": "t_mapping(t_uint256,t_struct(Savings)371_storage)"
      }
    ],
    "types": {
      "t_address": {
        "encoding": "inplace",
        "label": "address",
        "numberOfBytes": "20"
      },
      "t_address_payable": {
        "encoding": "inplace",
        "label": "address payable",
        "numberOfBytes": "20"
      },
      "t_bool": {
        "encoding": "inplace",
        "label": "bool",
        "numberOfBytes": "1"
      },
      "t_enum(SavingsStatus)347": {
        "encoding": "inplace",
        "label": "enum Esusu.SavingsStatus",
        "numberOfBytes": "1"
      },
      "t_mapping(t_address,t_struct(ChildSavings)114_storage)": {
        "encoding": "mapping",
        "key": "t_address",
        "label": "mapping(address => struct Esusu.ChildSavings)",
        "numberOfBytes": "32",
        "value": "t_struct(ChildSavings)114_storage"
      },
      "t_mapping(t_address,t_struct(TxHistory)127_storage)": {
        "encoding": "mapping",
        "key": "t_address",
        "label": "mapping(address => struct Esusu.TxHistory)",
        "numberOfBytes": "32",
        "value": "t_struct(TxHistory)127_storage"
      },
      "t_mapping(t_uint256,t_mapping(t_address,t_struct(TxHistory)127_storage))": {
        "encoding": "mapping",
        "key": "t_uint256",
        "label": "mapping(uint256 => mapping(address => struct Esusu.TxHistory))",
        "numberOfBytes": "32",
        "value": "t_mapping(t_address,t_struct(TxHistory)127_storage)"
      },
      "t_mapping(t_uint256,t_struct(Savings)371_storage)": {
        "encoding": "mapping",
        "key": "t_uint256",
        "label": "mapping(uint256 => struct Esusu.Savings)",
        "numberOfBytes": "32",
        "value": "t_struct(Savings)371_storage"
      },
      "t_string_storage": {
        "encoding": "bytes",
        "label": "string",
        "numberOfBytes": "32"
      },
      "t_struct(ChildSavings)114_storage": {
        "encoding": "inplace",
        "label": "struct Esusu.ChildSavings",
        "members": [
          {
            "astId": 101,
            "contract": "contracts/Esusu.sol:Esusu",
            "label": "childAge",
            "offset": 0,
            "slot": "0",
            "type": "t_uint256"
          },
          {
            "astId": 103,
            "contract": "contracts/Esusu.sol:Esusu",
            "label": "amount",
            "offset": 0,
            "slot": "1",
            "type": "t_uint256"
          },
          {
            "astId": 105,
            "contract": "contracts/Esusu.sol:Esusu",
            "label": "targetChild",
            "offset": 0,
            "slot": "2",
            "type": "t_uint256"
          },
          {
            "astId": 107,
            "contract": "contracts/Esusu.sol:Esusu",
            "label": "childAddress",
            "offset": 0,
            "slot": "3",
            "type": "t_address_payable"
          },
          {
            "astId": 109,
            "contract": "contracts/Esusu.sol:Esusu",
            "label": "fatherAddress",
            "offset": 0,
            "slot": "4",
            "type": "t_address"
          },
          {
            "astId": 111,
            "contract": "contracts/Esusu.sol:Esusu",
            "label": "canWithdraw",
            "offset": 0,
            "slot": "5",
            "type": "t_uint256"
          },
          {
            "astId": 113,
            "contract": "contracts/Esusu.sol:Esusu",
            "label": "deposited",
            "offset": 0,
            "slot": "6",
            "type": "t_bool"
          }
        ],
        "numberOfBytes": "224"
      },
      "t_struct(Savings)371_storage": {
        "encoding": "inplace",
        "label": "struct Esusu.Savings",
        "members": [
          {
            "astId": 349,
            "contract": "contracts/Esusu.sol:Esusu",
            "label": "owner",
            "offset": 0,
            "slot": "0",
            "type": "t_address_payable"
          },
          {
            "astId": 351,
            "contract": "contracts/Esusu.sol:Esusu",
            "label": "savingsAmount",
            "offset": 0,
            "slot": "1",
            "type": "t_uint256"
          },
          {
            "astId": 353,
            "contract": "contracts/Esusu.sol:Esusu",
            "label": "target",
            "offset": 0,
            "slot": "2",
            "type": "t_uint256"
          },
          {
            "astId": 355,
            "contract": "contracts/Esusu.sol:Esusu",
            "label": "startDate",
            "offset": 0,
            "slot": "3",
            "type": "t_uint256"
          },
          {
            "astId": 357,
            "contract": "contracts/Esusu.sol:Esusu",
            "label": "endDate",
            "offset": 0,
            "slot": "4",
            "type": "t_uint256"
          },
          {
            "astId": 359,
            "contract": "contracts/Esusu.sol:Esusu",
            "label": "purpose",
            "offset": 0,
            "slot": "5",
            "type": "t_string_storage"
          },
          {
            "astId": 361,
            "contract": "contracts/Esusu.sol:Esusu",
            "label": "isTime",
            "offset": 0,
            "slot": "6",
            "type": "t_bool"
          },
          {
            "astId": 363,
            "contract": "contracts/Esusu.sol:Esusu",
            "label": "forceWithdraw",
            "offset": 1,
            "slot": "6",
            "type": "t_bool"
          },
          {
            "astId": 365,
            "contract": "contracts/Esusu.sol:Esusu",
            "label": "inSaving",
            "offset": 2,
            "slot": "6",
            "type": "t_bool"
          },
          {
            "astId": 368,
            "contract": "contracts/Esusu.sol:Esusu",
            "label": "savingStatus",
            "offset": 3,
            "slot": "6",
            "type": "t_enum(SavingsStatus)347"
          },
          {
            "astId": 370,
            "contract": "contracts/Esusu.sol:Esusu",
            "label": "nonce",
            "offset": 0,
            "slot": "7",
            "type": "t_uint256"
          }
        ],
        "numberOfBytes": "256"
      },
      "t_struct(TxHistory)127_storage": {
        "encoding": "inplace",
        "label": "struct Esusu.TxHistory",
        "members": [
          {
            "astId": 116,
            "contract": "contracts/Esusu.sol:Esusu",
            "label": "savingsNonce",
            "offset": 0,
            "slot": "0",
            "type": "t_uint256"
          },
          {
            "astId": 118,
            "contract": "contracts/Esusu.sol:Esusu",
            "label": "purpose",
            "offset": 0,
            "slot": "1",
            "type": "t_string_storage"
          },
          {
            "astId": 120,
            "contract": "contracts/Esusu.sol:Esusu",
            "label": "amount",
            "offset": 0,
            "slot": "2",
            "type": "t_uint256"
          },
          {
            "astId": 122,
            "contract": "contracts/Esusu.sol:Esusu",
            "label": "owner",
            "offset": 0,
            "slot": "3",
            "type": "t_address_payable"
          },
          {
            "astId": 124,
            "contract": "contracts/Esusu.sol:Esusu",
            "label": "totalDeposit",
            "offset": 0,
            "slot": "4",
            "type": "t_uint256"
          },
          {
            "astId": 126,
            "contract": "contracts/Esusu.sol:Esusu",
            "label": "time",
            "offset": 0,
            "slot": "5",
            "type": "t_uint256"
          }
        ],
        "numberOfBytes": "192"
      },
      "t_uint256": {
        "encoding": "inplace",
        "label": "uint256",
        "numberOfBytes": "32"
      }
    }
  }
}